:020000040000FA
:100000000C9451010C9482010C9482010C94820195
:100010000C9482010C9482010C9482010C94820154
:100020000C9482010C9482010C9482010C94820144
:100030000C9482010C9482010C9482010C94820134
:100040000C9482010C9482010C9482010C94820124
:100050000C9482010C9482010C9482010C94710B1B
:100060000C9482010C943B0B0C94110B0C948201A8
:100070000C9482010C9482010C9482010C948201F4
:100080000C9482010C9482010C9482010C948201E4
:100090000C9482010C9482010C9482010C94BB0B91
:1000A0000C9482010C9482010C9482010C948201C4
:1000B0000C9482010C9482010C9482010C948201B4
:1000C0000C9482010C9482010C9482010C948201A4
:1000D0000C9482010C9482010C9482010C94820194
:1000E0000C9482010C9480070C9455020C948A03A2
:1000F0000C9471030C942A070C947D030C94AC03AC
:100100000C9494030C944C070C94FC020C9453072D
:100110000C94AF020C9469020C9486030C94DF0CCF
:100120000C94AB030C9479030C9475030C944E045B
:100130000C949E030C946B030C9419020C942309E9
:100140000C94A6030C9477020C9498030C94B507B6
:100150000C9417020C9439070C9490030C94B00380
:100160000C94DD030C94A2030C940E040C94290748
:100170000C9480030C9446020C94B4070C9418025F
:1001800000002100240027002A002D003000330049
:1001900001010000040107010A01000022002500FE
:1001A00028002B002E003100340002010000050160
:1001B00008010B01000020002300260029002C006C
:1001C0002F003200000100000301060109010505AE
:1001D0000505070508080808020202020A0A0808BD
:1001E00004040404010101010101010103030303EB
:1001F00003030303040707070C0C0C0C0C0C0C0C7A
:100200000202020206060606060606060B0B0B0B8A
:100210000B0B0B0B010210202008081020401020AF
:1002200040800201020108040201010204081020BA
:1002300040808040201008040201800402018040B8
:100240002010080402010804020101020408102021
:100250004080010204081020408000000A0B0209BF
:100260000C0D0E0807030401000000000000000050
:10027000000000000000000000000000000000007E
:10028000000000000000121110000000000000003B
:10029000000000000000000000000000000000005E
:1002A000DF0C11241FBECFEFD1E2DEBFCDBF00E0D7
:1002B0000CBF13E0A0E0B2E0E8EFF1E200E00BBF1A
:1002C00002C007900D92A031B107D9F725E0A0E157
:1002D000B3E001C01D92A430B207E1F711E0C1E51F
:1002E000D1E000E006C021970109802FFE010E94A5
:1002F000F210C035D10780E00807A9F70E94AA0DC7
:100300000C94FA100C94000096E0899FD0011124FF
:10031000A358BB4F90967C936E935F9791E0919614
:100320009C939197E091EA04F091EB049091E90499
:10033000992339F0309751F0811108C080919904C8
:100340001994309719F05C968C91FACF0895CF925A
:10035000DF92EF92FF920F931F9396E0899FF00137
:100360001124E358FB4F11A2278D30A12130310514
:1003700051F178F02230310509F451C023303105B4
:1003800009F452C01F910F91FF90EF90DF90CF9032
:1003900008956623B9F361E070E00E9484012FB7ED
:1003A000F8948091800390918103A0918203B09191
:1003B00083032FBF8093D5049093D604A093D704D2
:1003C000B093D804DFCF9FB7F894C0908003D0904B
:1003D0008103E0908203F09083039FBF0091D504D6
:1003E0001091D6042091D7043091D804C01AD10AB4
:1003F000E20AF30A0091E7041091E80430E020E0FB
:100400000C151D052E053F0550F462E070E01F91AC
:100410000F91FF90EF90DF90CF900C9484016111C9
:10042000B1CF63E070E0F3CF70E060E0F0CF08950B
:100430000895AF92BF92CF92DF92EF92FF920F9307
:100440001F93CF93DF936C017B018B01040F151F6A
:10045000EB015E01AE18BF08C017D10759F06991D2
:10046000D601ED91FC910190F081E02DC601199526
:10047000892B79F7C501DF91CF911F910F91FF90E3
:10048000EF90DF90CF90BF90AF900895FC01538D17
:10049000448D252F30E0842F90E0821B930B54175E
:1004A00010F0CF96089501970895FC01918D828DEB
:1004B000981761F0A28DAE0FBF2FB11D5D968C9184
:1004C000928D9F5F9F73928F90E008958FEF9FEFC3
:1004D0000895FC01918D828D981731F0828DE80F7F
:1004E000F11D858D90E008958FEF9FEF0895FC0139
:1004F000918D228D892F90E0805C9F4F821B910906
:100500008F739927089584ED93E00E94770221E08C
:10051000892B09F420E0822F0895FC01A48DA80FF7
:10052000B92FB11DA35ABF4F2C91848D90E0019635
:100530008F739927848FA689B7892C93A089B18955
:100540008C91837080648C93938D848D981306C0F6
:100550000288F389E02D80818F7D80830895EF925A
:10056000FF920F931F93CF93DF93EC0181E0888F6D
:100570009B8D8C8D98131AC0E889F989808185FF3D
:1005800015C09FB7F894EE89FF896083E889F989DF
:1005900080818370806480839FBF81E090E0DF91E1
:1005A000CF911F910F91FF90EF900895F62E0B8D34
:1005B00010E00F5F1F4F0F731127E02E8C8D8E11EF
:1005C0000CC00FB607FCFACFE889F989808185FF56
:1005D000F5CFCE010E948D02F1CFEB8DEC0FFD2FF8
:1005E000F11DE35AFF4FF0829FB7F8940B8FEA8911
:1005F000FB8980818062CFCFCF93DF93EC01888D20
:100600008823B9F0AA89BB89E889F9898C9185FD8D
:1006100003C0808186FD0DC00FB607FCF7CF8C911B
:1006200085FFF2CF808185FFEDCFCE010E948D0244
:10063000E9CFDF91CF91089580E090E0892B29F0F8
:100640000E94830281110E94000080E090E0892BCB
:1006500049F080E090E0892B29F00E940000811190
:100660000E94000080E090E0892B49F080E090E05B
:10067000892B29F00E94000081110E94000080E077
:1006800090E0892B49F080E090E0892B29F00E94CE
:10069000000081110C94000008958150823108F00F
:1006A0005AC0E82FF0E08827E75AFC4F8F4F0C9490
:1006B000F21079037D036B0371037503AB038003B1
:1006C00086038A039003940398039E03A203AB035B
:1006D000A603AC03B003809180008F7780938000E5
:1006E0000895809180008F7DF9CF80918000877F71
:1006F000F5CF84B58F7784BD089584B58F7DFBCF0A
:100700008091B0008F778093B00008958091B00001
:100710008F7DF9CF809190008F778093900008951E
:10072000809190008F7DF9CF80919000877FF5CFE9
:100730008091A0008F778093A00008958091A00001
:100740008F7DF9CF8091A000877FF5CF8091200128
:100750008F77809320010895809120018F7DF9CFBC
:1007600080912001877FF5CFCF93DF93282F30E052
:10077000F901E65AFD4F8491F901EC5EFD4FD491E9
:10078000F901E253FE4FC491CC23A1F081110E94E4
:100790004D03EC2FF0E0EE0FFF1FEC54FE4FA59140
:1007A000B491EC91ED2381E090E009F480E0DF91D9
:1007B000CF91089580E090E0FACF862F0C94B40397
:1007C0001F93CF93DF93282F30E0F901E65AFD4FB6
:1007D0008491F901EC5EFD4FD491F901E253FE4F93
:1007E000C491CC23A9F0162F81110E944D03EC2F48
:1007F000F0E0EE0FFF1FE656FE4FA591B4918FB7C4
:10080000F894EC91111108C0D095DE23DC938FBFD2
:10081000DF91CF911F910895DE2BF8CF862F642FA3
:100820000C94E003CF93DF9390E0FC01EC5EFD4F6E
:10083000249182539E4FFC0184918823C9F090E05B
:10084000880F991FFC01E058FE4FA591B491FC015F
:10085000E656FE4FC591D49161110DC09FB7F89433
:100860008C91209582238C938881282328839FBF95
:10087000DF91CF910895623051F49FB7F8943C9185
:10088000822F809583238C93E8812E2BEFCF8FB717
:10089000F894EC912E2B2C938FBFEACF862F642FE8
:1008A0000C9412046F927F928F929F92AF92BF929C
:1008B000CF92DF92EF92FF920F931F93CF93DF932C
:1008C00081E08093E9048FB7F894409180035091C0
:1008D000810360918203709183038FBF8091D9045B
:1008E0009091DA04A091DB04B091DC04481B590B11
:1008F0006A0B7B0B8091E5049091E604B0E0A0E0E8
:1009000084179507A607B70708F01DC1C0E08091BE
:10091000E304C81760F4E091DF04F091E004EC0F09
:10092000F11D62E080810E941204CF5FF0CF712C34
:10093000812C912C540183948091E404781608F062
:100940005FC0072D10E0E091E104F091E204E00FB8
:10095000F11F61E080810E941204E091E104F091B6
:10096000E204E00FF11F60E080810E94E003D50106
:10097000C401072C04C0880F991FAA1FBB1F0A942B
:10098000D2F76C017C01E094F094612C8091E30437
:100990006816F8F4C62DD0E0E091DF04F091E00491
:1009A000EC0FFD1F80810E94B4032496CC0FDD1F45
:1009B000C358DB4F892B41F4888199818C299D296B
:1009C000998388836394E2CF888199818E219F21C6
:1009D000F7CFE091E104F091E204E00FF11F61E054
:1009E00080810E94E0038091E1049091E204080F6D
:1009F000191F60E0F80180810E94120473949CCF5B
:100A0000CDE7D4E0FE018FEF9FEF278D30A1232BA0
:100A100021F4148E968F858F11A2369624E0E93B3F
:100A2000F20799F7F12C96E0D92E8091E304F8169D
:100A300008F050C0E12C0F2D10E0000F111F0B57D4
:100A40001B4F2091E404E21608F042C0F8016081D7
:100A500071810E2C02C0769567950A94E2F7F29E9A
:100A6000900111242E0D311DEDE7F4E080E0458D5D
:100A7000568D2417350709F46AC08F5F36968A3081
:100A8000B1F760FF23C0EDE7F4E090E080E0448D33
:100A9000411117C0E091DD04F091DE04E20FF31F75
:100AA0004081D89EF001D99EF00D1124E358FB4FF0
:100AB000448F368F258F10A2178E61E00E94A70108
:100AC00005C0019636968A30910509F7E394B9CFAF
:100AD000F394ABCF80E099A19111892F2696F4E091
:100AE000C93BDF07C1F79FB7F8944091800350914D
:100AF000810360918203709183039FBF4093D90467
:100B00005093DA046093DB047093DC048823D9F0FB
:100B100080919E048823B9F080919C0490919D045B
:100B2000019789F480919904DF91CF911F910F91E2
:100B3000FF90EF90DF90CF90BF90AF909F908F90FD
:100B40007F906F9008951092E90480E0EDCF61707E
:100B5000B5CF0E9452048823E1F308953FB7F8947B
:100B60008091750390917603A0917703B0917803FB
:100B700026B5A89B05C02F3F19F00196A11DB11DF8
:100B80003FBFBA2FA92F982F8827BC01CD01620F34
:100B9000711D811D911D42E0660F771F881F991FEF
:100BA0004A95D1F7089520915103260F3327331F1B
:100BB00021323105ECF42091AA03FC0190E080E0A1
:100BC000243069F082E00895A09151032191AC0195
:100BD0004F5C5C4FA40FB52FB11D2C930196861767
:100BE00098F380915103680F6093510380E008955A
:100BF00081E008951092AA0381E08093A9031092E6
:100C0000840361E084E10E94E00361E085E10E94E9
:100C1000E003E9EBF0E080818E7F808380818D7F2F
:100C2000808388E48093B80085E48093BC000895B5
:100C3000CF93DF9391E0909330038823B9F0C09174
:100C4000B800D091BA008091BC008A7B8093BC0030
:100C500060E084E10E94E00360E085E10E94E0033F
:100C60000E94FA05D093BA00C093B800DF91CF91EB
:100C700008958F929F92AF92BF92CF92DF92EF92A0
:100C8000FF920F931F93CF93DF93D091D303D13271
:100C900008F0D7C0182FC091D2030E94AE056B0197
:100CA0007C018091AA0381116BC082E08093AA032A
:100CB0001093A9038FEF8093A8031092A703D093FA
:100CC000A603A2EBB3E0E6E8F3E080E0D81391C01E
:100CD0001092850380918503CC0FC82BC0938503A8
:100CE00080918403813009F088C0109284030E94AF
:100CF000AE056B017C01809185038093BB008091E0
:100D0000AC039091AD03A091AE03B091AF03892BDA
:100D10008A2B8B2BA1F00E94AE050091AC031091A1
:100D2000AD032091AE033091AF036C197D098E099C
:100D30009F09061717072807390708F442C0809152
:100D4000BC0083FDD8CF85EC8093BC000E94AE052B
:100D50006B017C018091AA03823009F450C080911C
:100D6000A8038F3F09F46FC08091A803803209F473
:100D70006CC08091A803803309F469C084E026C068
:100D80008091AC039091AD03A091AE03B091AF03FD
:100D9000892B8A2B8B2B09F484CF0E94AE0580907F
:100DA000AC039090AD03A090AE03B090AF036C196C
:100DB0007D098E099F0986169706A806B90608F0D0
:100DC00070CF8091AB030E94180685E01092B103AA
:100DD0001092D3031092B003DF91CF911F910F9126
:100DE000FF90EF90DF90CF90BF90AF909F908F904B
:100DF00008959D9191938F5F69CF85EEA5CF8091E6
:100E0000AC039091AD03A091AE03B091AF03892BD9
:100E10008A2B8B2B09F49ECF0E94AE050091AC0368
:100E20001091AD032091AE033091AF036C197D0991
:100E30008E099F09061717072807390708F08ACF78
:100E4000C0CF81E0C3CF80E0C1CF82E0BFCF83E0DD
:100E5000BDCF0895E0917E0380917D03E81730F4C3
:100E6000F0E0E05FFC4F808190E008958FEF9FEF0E
:100E7000089590917E0380917D032FEF3FEF9817A7
:100E800048F4E92FF0E0E05FFC4F208130E09F5F05
:100E900090937E03C901089580917D0390917E0314
:100EA000891B990B0895CF92DF92EF92FF920F93D7
:100EB0001F93CF93DF937C01CB018A012091B00374
:100EC000222389F0EB016B01C40ED51ECC15DD0584
:100ED00069F06991D701ED91FC910190F081E02DCD
:100EE000C7011995F3CF642F0E94D305C801DF9184
:100EF000CF911F910F91FF90EF90DF90CF900895C9
:100F0000CF93DF931F92CDB7DEB769832091B003F3
:100F10002223F9F02091D303203258F021E030E071
:100F2000FC013383228390E080E00F90DF91CF912A
:100F300008958091B103E82FF0E0EE54FC4F9981C1
:100F400090838F5F8093B1038093D30381E090E01F
:100F5000ECCF61E0CE0101960E94D305F7CF682F58
:100F600081E794E00C948007089590E080E0089574
:100F70000E94A90580937F0380917F038D33C1F781
:100F80000895CF93DF93EC0181E08093B00380E577
:100F90008093D2031092B1031092D30390E080E0CB
:100FA0000E94AF078AEA90E00E94AF07CE010E943C
:100FB000AF0781E0DF91CF910C943906CF93DF9397
:100FC000EC0160E08E810E94E00361E08E810E946E
:100FD000E00360E08E810E94E0038BE891E00197DE
:100FE000F1F7DF91CF910895CF92DF92EF92FF92C8
:100FF0000F931F93CF93DF936C017C0187E0E80E82
:10100000F11CD0E0C0E0062F10E0B8010C2E02C0A9
:10101000759567950A94E2F76170F70181917F01F8
:101020000E94E0032196C430D10579F7C601DF9113
:10103000CF911F910F91FF90EF90DF90CF900C9484
:10104000DE07CF92DF92EF92FF920F931F93CF9321
:10105000DF93EC01F62E642F8C810E94E0038D81DA
:101060008F3F19F060E00E94E0030F2D10E08F85A4
:1010700084FF25C06E0187E0C80ED11CF12CE12C45
:10108000B8010E2C02C0759567950A94E2F761705D
:10109000F60181916F010E94E003FFEFEF1AFF0A52
:1010A00088E0E816F10461F7CE01DF91CF911F913E
:1010B0000F91FF90EF90DF90CF900C94DE07B80176
:1010C00084E0759567958A95E1F7CE010E94F40753
:1010D0006F2DCE01DF91CF911F910F91FF90EF9077
:1010E000DF90CF900C94F40740E0682F8CEE94E0F2
:1010F0000C94210881E00E9474088BE39FE1019722
:10110000F1F70895CF93DF93823029F49091FB0497
:1011100098609093FB048093FF041092000580E494
:101120008093010580E18093020580E580930305AB
:1011300061E08091F0040E9412048091F1048F3FDD
:1011400019F061E00E94120461E08091F2040E94B3
:101150001204CCEED4E09E012C5E34408091FB045E
:1011600084FD0BC084E090E021962817390744F4F1
:1011700061E08E810E941204EECF88E090E0F4CF0F
:101180008BE39DE00197F1F760E08091F0040E940D
:10119000E00360E08091F2040E94E0038091F1049A
:1011A0008F3F19F060E00E94E0038091FB0484FD12
:1011B00034C063E08CEE94E00E94F407CBE4D6E404
:1011C000CE010197F1F763E08CEE94E00E94F40702
:1011D0002197F1F763E08CEE94E00E94F40783E539
:1011E00092E00197F1F762E08CEE94E00E94F40740
:1011F0008091FB0480620E94740884E08093FC0468
:101200008CE00E9474080E947A0882E08093FD04BA
:1012100086E0DF91CF910C94740880620E9474087C
:101220008BE496E40197F1F78091FB0480620E94C1
:10123000740883E592E00197F1F78091FB048062E6
:101240000E947408D5CF41E00E94210881E090E01F
:101250000895CF92DF92EF92FF920F931F9381E058
:101260008093B00380E58093D2031092B103109273
:10127000D30390E080E00E94AF078AEA90E00E94EA
:10128000AF0781E00E9439060E94AE056B017C0128
:101290008091AA03811163C081E08093AA038093A7
:1012A000A9039FEF9093A8031092A7031092A6039F
:1012B0008093850380918503806A80938503809164
:1012C0008403813009F07FC0109284030E94AE0530
:1012D0006B017C01809185038093BB008091AC03FE
:1012E0009091AD03A091AE03B091AF03892B8A2BEF
:1012F0008B2BA1F00E94AE050091AC031091AD03C1
:101300002091AE033091AF036C197D098E099F09BE
:10131000061717072807390708F442C08091BC0058
:1013200083FDD8CF85EC8093BC000E94AE056B0195
:101330007C018091AA03813009F447C08091A70302
:10134000811165C08091A703A6E8B3E0E0E1F3E076
:1013500090E0981751F12D9121939F5FFACF8091E2
:10136000AC039091AD03A091AE03B091AF03892B74
:101370008A2B8B2B09F48CCF0E94AE050091AC0315
:101380001091AD032091AE033091AF036C197D092C
:101390008E099F09061717072807390708F078CF25
:1013A0008091AB030E94180680E010927E03809328
:1013B0007D0381E794E01F910F91FF90EF90DF9004
:1013C000CF900C94390785EEAECF8091AC0390910D
:1013D000AD03A091AE03B091AF03892B8A2B8B2B69
:1013E00009F4A7CF0E94AE050091AC031091AD03A4
:1013F0002091AE033091AF036C197D098E099F09CE
:10140000061717072807390708F093CFC9CF81E0DF
:101410009BCFFB0101900020E9F73197AF01461BFC
:10142000570BDC01ED91FC910280F381E02D1994C2
:10143000CF93DF93682F84ED93E00E94AF02EC011D
:101440006EE572E084ED93E00E94090A8C0F9D1F07
:10145000DF91CF910895CF93DF93BC0184ED93E0AA
:101460000E94090AEC016EE572E084ED93E00E94AF
:10147000090A8C0F9D1FDF91CF9108954F925F92C3
:101480006F927F92AF92BF92CF92DF92EF92FF92D4
:101490000F931F93CF93DF93CDB7DEB7A1970FB60E
:1014A000F894DEBF0FBECDBF5C016A017B01F7FE81
:1014B00047C0DC01ED91FC910190F081E02D6DE2DF
:1014C00019958C0122273327A9012C193D094E09B2
:1014D0005F0919A2FE01B1967F019AE0492E512CB5
:1014E000612C712CCA01B901A30192010E94D01094
:1014F000605DD7016E937D012115310541055105D0
:1015000089F790E080E0109721F0BD01C5010E94AD
:10151000090A800F911FA1960FB6F894DEBF0FBE87
:10152000CDBFDF91CF911F910F91FF90EF90DF9092
:10153000CF90BF90AF907F906F905F904F90089545
:10154000AB01960119A28E010F5D1F4F8AE0C82ED4
:10155000D12CE12CF12CCA01B901A70196010E94FE
:10156000D010605DF80162938F01211531054105AE
:10157000510589F790E080E0309769F2BF01C5011D
:101580000E94090AC8CFCF93DF93AC01990F660B75
:10159000770B84ED93E00E943E0AEC016EE572E069
:1015A00084ED93E00E94090A8C0F9D1FDF91CF917B
:1015B000089585ED8093BC008091AC039091AD03BC
:1015C000A091AE03B091AF030796A11DB11D23E01A
:1015D000B695A795979587952A95D1F72091BC0048
:1015E00024FD03C01092AA0308954091AC035091CA
:1015F000AD036091AE037091AF03452B462B472B93
:1016000069F30097A105B10541F025E32A95F1F7AB
:1016100000000197A109B109E1CF8091AB030C94BF
:1016200018061F920F920FB60F9211240BB60F924D
:101630002F933F934F935F936F937F938F939F93DA
:10164000AF93BF93EF93FF9384ED93E00E948D02DD
:10165000FF91EF91BF91AF919F918F917F916F918A
:101660005F914F913F912F910F900BBE0F900FBE46
:101670000F901F9018951F920F920FB60F92112482
:101680000BB60F922F938F939F93EF93FF93E0915D
:10169000E403F091E5038081E091EA03F091EB032C
:1016A00082FD1DC090818091ED038F5F8F7320912B
:1016B000EE03821741F0E091ED03F0E0EC52FC4FB5
:1016C000958F8093ED03FF91EF919F918F912F91D3
:1016D0000F900BBE0F900FBE0F901F90189580813A
:1016E000F2CF1F920F920FB60F9211242F933F93B8
:1016F0008F939F93AF93BF938091800390918103C9
:10170000A0918203B09183033091740323E0230FEF
:101710002D3758F50196A11DB11D209374038093B8
:10172000800390938103A0938203B09383038091FD
:10173000750390917603A0917703B0917803019699
:10174000A11DB11D8093750390937603A093770339
:10175000B0937803BF91AF919F918F913F912F915B
:101760000F900FBE0F901F90189526E8230F02963A
:10177000A11DB11DD2CF1F920F920FB60F9211244F
:101780000BB60F922F933F934F935F936F937F937B
:101790008F939F93AF93BF93EF93FF938091B90083
:1017A000887F803609F44DC008F040C0883209F4C3
:1017B000A9C028F5803109F49DC0C8F4882309F434
:1017C000FBC0883009F496C0FF91EF91BF91AF91B3
:1017D0009F918F917F916F915F914F913F912F9149
:1017E0000F900BBE0F900FBE0F901F901895883171
:1017F00009F488C0803241F78093A80314C0803474
:1018000009F49DC040F48033B9F38833E9F680933E
:10181000A80385ECB0C0803509F485C0883509F48B
:1018200096C0883489F60E94D90ACECF883909F447
:101830008CC038F5883729F050F4883611F080379D
:1018400019F683E08093AA031092730357C0883877
:1018500009F47BC0803919F0803809F0B5CF809148
:101860007303803208F071C0E091730381E08E0F42
:10187000809373038091BB00F0E0ED5AFC4F8083AE
:101880003DC0803B39F0E0F4803A09F479C0883AF1
:1018900009F09ACF84E08093AA0310925203109229
:1018A0005103E0917B03F0917C03199580915103E2
:1018B00081110FC081E0809351031092310309C060
:1018C000803C09F4A6CF883C09F4A3CF883B09F0FB
:1018D0007BCFE091520381E08E0F80935203F0E0C2
:1018E000EF5CFC4F80818093BB009091520380910C
:1018F000510329C0809185038093BB0085EC8093C0
:10190000BC0062CF9091A7038091A603981758F569
:10191000E091A70381E08E0F8093A703F0E0EA57E0
:10192000FC4F8081E9CFE091A70381E08E0F809387
:10193000A7038091BB00F0E0EA57FC4F80839091B1
:10194000A7038091A6039817C8F285E8D8CFE09145
:10195000A70381E08E0F8093A7038091BB00F0E086
:10196000EA57FC4F80838091A90381115CCF81E00D
:101970008093840384EA8093BC001092AA0324CF4E
:1019800085EC8093BC001092AA038091730380328F
:1019900030F4E0917303F0E0ED5AFC4F1082609157
:1019A000730370E0E0917903F0917A0383E593E0AB
:1019B00019951092730308CF1092A80334CF109298
:1019C000D7031092D60388EE93E0A0E0B0E08093B6
:1019D000D8039093D903A093DA03B093DB0328E2F2
:1019E00032E03093D5032093D40325EC30E03093DC
:1019F000E1032093E00324EC30E03093E3032093F1
:101A0000E20320EC30E03093E5032093E40321EC83
:101A100030E03093E7032093E60322EC30E030938C
:101A2000E9032093E80326EC30E03093EB032093A6
:101A3000EA031092ED031092EE031092EF0310925E
:101A4000F0031092740410927304809375049093C1
:101A50007604A0937704B09378048AE392E090939D
:101A60007204809371041092EF041092EE0486E5E4
:101A700092E09093ED048093EC048DE08093F00469
:101A80008FEF8093F1048CE08093F20488E08093E0
:101A9000F30489E08093F4048AE08093F5048BE0FA
:101AA0008093F6041092F7041092F8041092F9044F
:101AB0001092FA041092FB0481E00E9482081092B6
:101AC0007F041092830410928204109284048CE4A8
:101AD00092E090937E0480937D04E9E9F4E0108223
:101AE000148213821582369684E0E53DF807B9F733
:101AF00080E192E09093E0048093DF048CE092E038
:101B00009093E2048093E10484E08093E304809363
:101B1000E40484E192E09093DE048093DD048AE0A3
:101B200090E09093E6048093E50484EF91E0909335
:101B3000E8048093E7041092EB041092EA041092F8
:101B4000D9041092DA041092DB041092DC04109293
:101B5000E9040895789484B5826084BD84B5816079
:101B600084BD85B5826085BD85B5816085BD809168
:101B70006E00816080936E001092810080918100E0
:101B800082608093810080918100816080938100D8
:101B9000809180008160809380008091B10084609A
:101BA0008093B1008091B00081608093B0008091FB
:101BB0009100826080939100809191008160809378
:101BC0009100809190008160809390008091A100AD
:101BD00082608093A1008091A10081608093A10028
:101BE0008091A00081608093A0008091210182609B
:101BF0008093210180912101816080932101809156
:101C0000200181608093200180917A00846080931C
:101C10007A0080917A00826080937A0080917A00C5
:101C2000816080937A0080917A00806880937A0046
:101C30001092C100E091E403F091E50382E080831B
:101C4000E091E003F091E1031082E091E203F09172
:101C5000E3038FEC80831092EC03E091E803F091B2
:101C6000E90386E08083E091E603F091E703808159
:101C700080618083E091E603F091E70380818860D2
:101C80008083E091E603F091E703808180688083A0
:101C9000E091E603F091E70380818F7D808381E608
:101CA00092E00E942B0A80910002909101020E9412
:101CB000C30A82E00E9482080E947A0810927E0382
:101CC00010927D031092B1031092D3030E94FA0583
:101CD00087E192E090937C0380937B0388E192E01C
:101CE00090937A038093790361E087E00E94120465
:101CF00061E086E00E94120461E085E00E94120427
:101D000061E084E00E9412040E94290990930B0272
:101D100080930A028FE792E00E942B0A80910A02C8
:101D200090910B020E94C30A80910A0290910B02CB
:101D3000059734F081E090E090930B0280930A02C3
:101D400080910A0290910B0290930102809300020D
:101D50008DE992E00E942B0A80910002909101028D
:101D60000E94C30AA4E0CA2ED12CC0910A02D091CD
:101D70000B02C130D10509F082C000910802109118
:101D80000902C7E0D0E061E08C2F0E94E003F12C53
:101D9000E12CE016F1060CF0A5C10E9452048093DC
:101DA0007F030E947A08E1E08091FF048111E0E066
:101DB000E195F0E0E451FB4F848980680E9474084B
:101DC00065EB72E08CEE94E00E94090A40910A02F1
:101DD00050910B02052E000C660B770B8CEE94E0F5
:101DE0000E943E0AE091FF04E23008F068C0E15032
:101DF000F0E0E451FB4F848980680E94740863EC32
:101E000072E08CEE94E00E94090AA8014E195F0965
:101E1000052E000C660B770B8CEE94E00E943E0AB8
:101E200080917F038D3309F04CC00E94B8070E9457
:101E3000AE052B013C0184E6882E912CA12CB12CFF
:101E40000E94AE056419750986099709683E7340BA
:101E500081059105A8F321E0821A9108A108B10833
:101E600088EE480E83E0581E611C711C8114910499
:101E7000A104B10429F78FEFE81AF80A8ACFC2301B
:101E8000D10539F40091060210910702C6E0D0E0B6
:101E90007ACFC330D10539F40091040210910502C4
:101EA000C5E0D0E070CF0091020210910302C4306F
:101EB000D10509F468CFC0E010E000E064CFE1E0B4
:101EC00097CF8334B9F58EEC92E00E942B0A0E94E2
:101ED000A90580937F030E94180A80917F038133B4
:101EE00059F481E090E00E94C10781E090E0909376
:101EF0000102809300029BCF823339F482E090E0AC
:101F00000E94C10782E090E0F2CF833339F483E08E
:101F100090E00E94C10783E090E0E9CF843309F0AC
:101F200086CF84E090E00E94C107D0920102C09267
:101F300000027DCF8B3209F07ACF80EE92E00E94D2
:101F40002B0A0E94A90580937F030E94180A8091A2
:101F50007F038133A1F50E94A90580937F038A3214
:101F600019F58091080290910902880F991F9093AA
:101F700009028093080284EF92E00E942B0A80916C
:101F80000802909109020E94C30A80910A0290916E
:101F90000B028130910509F087C000910802109171
:101FA0000902C7E0D0E043CF8F3279F78091080271
:101FB0009091090297FD019695958795D8CF823328
:101FC00021F50E94A90580937F038A3299F48091BC
:101FD000060290910702880F991F90930702809341
:101FE000060288EF92E00E942B0A809106029091EF
:101FF0000702C9CF8F3249F68091060290910702FD
:1020000097FD019695958795E8CF833329F50E9432
:10201000A90580937F038A3299F4809104029091FC
:102020000502880F991F90930502809304028BEF9D
:1020300092E00E942B0A8091040290910502A3CFA6
:102040008F3209F0A2CF809104029091050297FD92
:10205000019695958795E7CF843309F096CF0E9436
:10206000A90580937F038A3299F4809102029091AE
:102070000302880F991F90930302809302028FEF4F
:1020800092E00E942B0A80910202909103027BCF82
:102090008F3209F07ACF809102029091030297FD6E
:1020A000019695958795E7CF8230910539F4009197
:1020B000060210910702C6E0D0E0B9CE8330910548
:1020C00039F40091040210910502C5E0D0E0AFCED2
:1020D000049709F0ACCE0091020210910302C4E013
:1020E000D0E0A5CE60E08C2F0E94E00380910A0230
:1020F00090910B02019690930B0280930A02059730
:102100000CF448C061E087E00E94E00361E086E0F3
:102110000E94E00361E085E00E94E00361E084E06A
:102120000E94E0030E947A08E1E08091FF0481119F
:10213000E0E0E195F0E0E451FB4F848980680E9483
:10214000740862E073E08CEE94E00E94090A0E9439
:10215000B80760E087E00E94E00360E086E00E944C
:10216000E00360E085E00E94E00360E084E00E941C
:10217000E0030E942909853091057CF490930B02BD
:1021800080930A0280910A0290910B0290930102BF
:10219000809300020E941C03E8CD81E090E0EECF26
:1021A000A1E21A2EAA1BBB1BFD010DC0AA1FBB1F5B
:1021B000EE1FFF1FA217B307E407F50720F0A21BCD
:1021C000B30BE40BF50B661F771F881F991F1A943A
:1021D00069F760957095809590959B01AC01BD0164
:1021E000CF010895EE0FFF1F881F8BBF0790F69158
:1021F000E02D1994F894FFCF01003C003C003C0016
:102200003C0001001A1B1C1D161718193738392FEE
:102210003435362A3132332D43303D2B0000000057
:10222000AF0219024602FC02770255026902000061
:10223000000080075307B50729074C0739072A070D
:10224000000000004E040E04DD030000000023091E
:102250001902B507B4070D0A00646566206D6F6446
:1022600065206265666F72652072656164206672C2
:102270006F6D206D656D0063757272206D6F6465A2
:1022800020616674657220726561642066726F6D8C
:10229000206D656D00646566206D6F646520616604
:1022A0007465722061737369676E65640044656666
:1022B00061756C74204D6F64653A0052656D61699B
:1022C0006E696E673A00696D20696E206368616EA1
:1022D0006765206D6F646500696D20696E206368B5
:1022E000616E67652074696D6572200070575400D7
:1022F00077540077575400645400456E64206F662D
:08230000205761736821000001
:10E000000D9489F10D94B2F10D94B2F10D94B2F129
:10E010000D94B2F10D94B2F10D94B2F10D94B2F1F0
:10E020000D94B2F10D94B2F10D94B2F10D94B2F1E0
:10E030000D94B2F10D94B2F10D94B2F10D94B2F1D0
:10E040000D94B2F10D94B2F10D94B2F10D94B2F1C0
:10E050000D94B2F10D94B2F10D94B2F10D94B2F1B0
:10E060000D94B2F10D94B2F10D94B2F10D94B2F1A0
:10E070000D94B2F10D94B2F10D94B2F10D94B2F190
:10E080000D94B2F10D94B2F10D94B2F10D94B2F180
:10E090000D94B2F10D94B2F10D94B2F10D94B2F170
:10E0A0000D94B2F10D94B2F10D94B2F10D94B2F160
:10E0B0000D94B2F10D94B2F10D94B2F10D94B2F150
:10E0C0000D94B2F10D94B2F10D94B2F10D94B2F140
:10E0D0000D94B2F10D94B2F10D94B2F10D94B2F130
:10E0E0000D94B2F141546D656761323536300041AF
:10E0F000726475696E6F206578706C6F72657220DE
:10E1000073746B3530305632206279204D4C530099
:10E11000426F6F746C6F616465723E004875683F52
:10E1200000436F6D70696C6564206F6E203D200048
:10E130004350552054797065202020203D20005FF9
:10E140005F4156525F415243485F5F3D2000415658
:10E1500052204C696243205665723D20004743437C
:10E160002056657273696F6E203D20004350552024
:10E1700049442020202020203D20004C6F7720663D
:10E18000757365202020203D20004869676820665F
:10E190007573652020203D200045787420667573D6
:10E1A00065202020203D20004C6F636B2066757336
:10E1B000652020203D20004D617220203720323024
:10E1C000313300312E362E3800342E332E350056A2
:10E1D00023202020414444522020206F7020636F70
:10E1E00064652020202020696E73747275637469E1
:10E1F0006F6E2061646472202020496E74657272B3
:10E20000757074006E6F20766563746F7200726A49
:10E210006D702020006A6D70200057686174207056
:10E220006F72743A00506F7274206E6F7420737541
:10E2300070706F72746564004D7573742062652030
:10E2400061206C6574746572002000577269747483
:10E25000696E672045450052656164696E672045B7
:10E26000450045452065727220636E743D00504F35
:10E27000525400303D5A65726F2061646472003FF1
:10E280003D43505520737461747300403D454550C3
:10E29000524F4D207465737400423D426C696E6B41
:10E2A000204C454400453D44756D70204545505215
:10E2B0004F4D00463D44756D7020464C415348001B
:10E2C000483D48656C70004C3D4C69737420492F83
:10E2D0004F20506F72747300513D51756974005234
:10E2E0003D44756D702052414D00563D73686F7707
:10E2F00020696E7465727275707420566563746FF0
:10E30000727300593D506F727420626C696E6B00BD
:10E310002A0011241FBECFEFD1E2DEBFCDBF01E046
:10E320000CBF12E0A0E0B2E0EEE1FDEF03E00BBFB6
:10E3300002C007900D92A030B107D9F712E0A0E01B
:10E34000B2E001C01D92AE30B107E1F70F9460F367
:10E350000D948DFE01E20EBF0FEF0DBF11241FBE05
:10E360000D9460F30D9400F020E030E040ED57E0B4
:10E3700005C0FA013197F1F72F5F3F4F2817390792
:10E38000C0F308959C01260F311DC901A0E0B0E043
:10E390002F5F3F4FABBFFC018791882361F08093D3
:10E3A000C6008091C00086FFFCCF8091C0008064D1
:10E3B0008093C000EACF08958DE08093C6008091DD
:10E3C000C00086FFFCCF8091C00080648093C000B5
:10E3D0008AE08093C6008091C00086FFFCCF8091C8
:10E3E000C00080648093C00008950F94C2F10F9420
:10E3F000DCF10895FC019081992359F09093C600B7
:10E400008091C00086FFFCCF8091C0008064809323
:10E41000C0003196992379F70895282F982F929567
:10E420009F70892F805D8A3308F0895F8093C600D2
:10E430008091C00086FFFCCF8091C00080648093F3
:10E44000C000822F8F70982F905D9A3308F0995FEB
:10E450009093C6008091C00086FFFCCF8091C000E1
:10E4600080648093C00008959C01FB01853691056E
:10E470001CF46330710594F0C90164E670E00F94F8
:10E480002EFE605D7F4F6093C6008091C00086FFC6
:10E49000FCCF8091C00080648093C0002B30310598
:10E4A00014F43297B4F0C90164E670E00F942EFEC4
:10E4B0006AE070E00F942EFE605D7F4F6093C600AF
:10E4C0008091C00086FFFCCF8091C0008064809363
:10E4D000C000C9016AE070E00F942EFEC0968093E0
:10E4E000C6008091C00086FFFCCF8091C000806490
:10E4F0008093C00008951F93182F8EE692EE60E07F
:10E500000F94C2F11093C6008091C00086FFFCCF2B
:10E510008091C00080648093C0000F94DCF11F9153
:10E5200008952F923F924F925F926F927F928F92B7
:10E530009F92AF92BF92CF92DF92EF92FF920F9392
:10E540001F93DF93CF93CDB7DEB762970FB6F894E2
:10E55000DEBF0FBECDBF382E622ECA01DB015C01CB
:10E560006D01772420E2222E2E010894411C511CBB
:10E570008BC081E0A81680E0B80681E0C80680E084
:10E58000D80628F0C601AA27BB270F940DF2BB2797
:10E59000AD2D9C2D8B2D0F940DF28A2D0F940DF225
:10E5A0002092C6008091C00086FFFCCF8091C00001
:10E5B00080648093C0009DE29093C6008091C0006B
:10E5C00086FFFCCF8091C00080648093C0002092C1
:10E5D000C6008091C00086FFFCCF8091C00080649F
:10E5E0008093C00019828601750188249924A1E0D6
:10E5F0003A1651F03A1620F0B2E03B1661F409C029
:10E600000BBFF701779007C0C7010F9477FE782EF4
:10E6100002C0F7017080872D0F940DF22092C60082
:10E620008091C00086FFFCCF8091C0008064809301
:10E63000C000872D8052F401EF70F0708F3520F408
:10E64000E40DF51D708204C0E40DF51D8EE280839B
:10E650000894E11CF11C011D111D0894811C911CE2
:10E6600090E18916910409F0C2CF80E190E0A0E02A
:10E67000B0E0A80EB91ECA1EDB1E198AC2010F9493
:10E68000FAF10F94DCF16A94662009F072CF629679
:10E690000FB6F894DEBF0FBECDBFCF91DF911F91B3
:10E6A0000F91FF90EF90DF90CF90BF90AF909F9031
:10E6B0008F907F906F905F904F903F902F90089534
:10E6C0002F923F924F925F926F927F928F929F9282
:10E6D000AF92BF92CF92DF92EF92FF920F931F9370
:10E6E000DF93CF93CDB7DEB7CD53D1400FB6F894BB
:10E6F000DEBF0FBECDBF01E20EBF0FEF0DBF94B75F
:10E70000F894A89514BE80916000886180936000A1
:10E7100010926000789493FF05C0E0910002F091A0
:10E7200001021995279A2F9A8091C00082608093E8
:10E73000C00080E18093C40088E18093C1000000A4
:10E74000EE24FF24870144E0A42EB12CCC24DD2448
:10E7500024C0C5010197F1F70894E11CF11C011DCB
:10E76000111D21E2E2162EE4F20620E0020720E06D
:10E77000120718F031E0C32ED12CC801B70127ECE5
:10E780003BE140E050E00F9441FE611571058105C9
:10E79000910519F485B1805885B98091C00087FD35
:10E7A00003C0C114D104A9F2A6014F5F5F4FC25E3E
:10E7B000DE4F59834883CE51D140C25EDE4F8881FF
:10E7C0009981CE51D140019711F00D9410FEC05D9A
:10E7D000DE4F19821882C053D14060E0C15DDE4F28
:10E7E0001882CF52D14088249924C35DDE4F19820C
:10E7F0001882CD52D140C05EDE4F188219821A8233
:10E800001B82C052D140CE5CDE4F188219821A8220
:10E810001B82C253D140EE24FF2487010BBFF701B6
:10E8200007911691C45CDE4F19830883CC53D14005
:10E830000D940BFEC25EDE4F28813981CE51D1404E
:10E840002130310509F52091C600C25EDE4F1982E4
:10E850001882CE51D14022C02F5F3F4F4F4F5F4FA4
:10E86000213082E138078AE7480780E0580780F0C6
:10E87000C45CDE4FE881F981CC53D140EF5FFF4F9C
:10E8800019F0EE27FF27099420E030E040E050E047
:10E890008091C00087FFE0CF2091C600C35DDE4FAE
:10E8A00048815981CD52D1404F5F5F4FC35DDE4FEC
:10E8B00059834883CD52D140213209F063C64A3092
:10E8C000510508F05FC60894811C911C53E0851621
:10E8D000910409F059C600E010E018C081E280936D
:10E8E000C6008091C00086FFFCCF8091C00080648C
:10E8F0008093C0002F5F3F4F2931310579F70F9486
:10E90000DCF10F5F1F4F0530110519F020E030E0FA
:10E91000E5CF10920A0210920B0210920C02109294
:10E920000D02109206021092070210920802109235
:10E930000902109202021092030210920402109235
:10E9400005028FEE90EE60E00F94F5F180E191EE1C
:10E9500060E00F94C2F18091C00087FFFCCF9091DE
:10E96000C600903608F09F759032B8F09093C600BC
:10E970008091C00086FFFCCF8091C00080648093AE
:10E98000C000A0E2A093C6008091C00086FFFCCF2B
:10E990008091C00080648093C000983409F4D7C18E
:10E9A0009934B8F4923409F459C1933458F490333B
:10E9B00019F1903308F4E3C59F33A1F1903409F0C5
:10E9C000DEC5BDC0953409F470C1963409F0D7C5D1
:10E9D00098C1923509F42BC2933538F49C3409F46C
:10E9E000F5C1913509F0CBC518C2963509F445C279
:10E9F000993509F0C4C567C483E792EE62E00F94CD
:10EA0000F5F110920602109207021092080210927D
:10EA1000090210920A0210920B0210920C0210923C
:10EA20000D0213C18FE792EE62E00F94F5F18FEEC5
:10EA300090EE60E00F94F5F181E291EE60E00F94CA
:10EA4000C2F187EB91EE60E00F94F5F180E391EE77
:10EA500060E00F94C2F184EE90EE60E00F94F5F167
:10EA60008FE391EE60E00F94C2F186E090E061E008
:10EA700070E00F9434F20F94DCF18DE591EE60E0DC
:10EA80000F94C2F189EC91EE60E00F94F5F18EE401
:10EA900091EE60E00F94C2F183EC91EE60E00F9490
:10EAA000F5F18CE691EE60E00F94C2F18EE10F94E7
:10EAB0000DF288E90F940DF281E00F940DF20F949E
:10EAC000DCF18BE791EE60E00F94C2F119E0E0E039
:10EAD000F0E010935700E4918E2F0F940DF20F94F5
:10EAE000DCF18AE891EE60E00F94C2F1E3E0F0E03F
:10EAF00010935700E4918E2F0F940DF20F94DCF1D8
:10EB000089E991EE60E00F94C2F1E2E0F0E0109349
:10EB10005700E4918E2F0F940DF20F94DCF188EAE8
:10EB200091EE60E00F94C2F1E1E0F0E01093570045
:10EB30001491812F0F940DF20F94DCF107CF8BE825
:10EB400092EE62E00F94F5F18BE492EE60E00F94A8
:10EB5000F5F10F94DCF100E010E019C0C8016F2D51
:10EB60000F947FFEFF2031F489E492EE60E00F9471
:10EB7000C2F10BC0F092C6008091C00086FFFCCFAE
:10EB80008091C00080648093C0000F5F1F4FC80158
:10EB900081519F41A0E0B0E0ABBFFC01F790BAE229
:10EBA000FB1621F0E2E000301E07C1F60F94DCF105
:10EBB0000F94DCF187E592EE60E00F94F5F10F948D
:10EBC000DCF1CC24DD2400E010E01EC0C8010F946D
:10EBD00077FEF82E882331F489E492EE60E00F94FA
:10EBE000C2F10BC08093C6008091C00086FFFCCFAD
:10EBF0008091C00080648093C000FE1419F00894D6
:10EC0000C11CD11C0F5F1F4FC80181519F41A0E063
:10EC1000B0E0ABBFFC01E790FAE2EF1621F022E092
:10EC20000030120799F60F94DCF10F94DCF182E6C4
:10EC300092EE60E00F94C2F1C60161E070E00F94C3
:10EC400034F20F94DCF10F94DCF110920202109276
:10EC50000302109204021092050278CE89E992EE26
:10EC600062E00F94F5F1279A2F9A16C02F9880E052
:10EC700090E0E0EDF7E03197F1F7019684369105E9
:10EC8000C1F72F9A80E090E0E0EDF7E03197F1F7DF
:10EC9000019684369105C1F78091C00087FFE6CFC9
:10ECA0008091C00087FFFCCF64C485EA92EE62E0E9
:10ECB0000F94F5F140910202509103026091040219
:10ECC0007091050281E020E10F9491F2809102029F
:10ECD00090910302A0910402B091050280509F4FD1
:10ECE000AF4FBF4F8093020290930302A0930402A0
:10ECF000B093050280509041A040B04008F426CE69
:10ED0000A4CF83EB92EE62E00F94F5F140910602FE
:10ED100050910702609108027091090280E020E1A1
:10ED20000F9491F28091060290910702A09108023F
:10ED3000B091090280509F4FAF4FBF4F80930602A2
:10ED400090930702A0930802B0930902FFCD80ECD4
:10ED500092EE62E00F94F5F183E792EE60E00F949B
:10ED6000F5F18FE792EE60E00F94F5F18BE892EE0B
:10ED700060E00F94F5F189E992EE60E00F94F5F10F
:10ED800085EA92EE60E00F94F5F183EB92EE60E09D
:10ED90000F94F5F180EC92EE60E00F94F5F187ECC2
:10EDA00092EE60E00F94F5F188ED92EE60E00F9442
:10EDB000F5F18FED92EE60E00F94F5F18AEE92EEB0
:10EDC00060E00F94F5F183E093EEBDCD87EC92EE19
:10EDD00062E00F94F5F181E40F947BF282E40F94EA
:10EDE0007BF283E40F947BF284E40F947BF285E45E
:10EDF0000F947BF286E40F947BF287E40F947BF20E
:10EE000088E40F947BF28AE40F947BF28BE40F94F6
:10EE10007BF28CE40F947BF299CD88ED92EE62E068
:10EE20000F94F5F1772473948824992409C48FED05
:10EE300092EE62E00F94F5F140910A0250910B02BC
:10EE400060910C0270910D0282E020E10F9491F22A
:10EE500080910A0290910B02A0910C02B0910D02D8
:10EE600080509F4FAF4FBF4F80930A0290930B0289
:10EE7000A0930C02B0930D0269CD8AEE92EE62E08F
:10EE80000F94F5F184EE90EE60E00F94F5F18FECC5
:10EE900091EE60E00F94F5F1662477244301CC5D98
:10EEA000DE4F19821882C452D140D401C301B695F5
:10EEB000A79597958795CA5DDE4F88839983AA8326
:10EEC000BB83C652D140CC5DDE4FA881B981C4520C
:10EED000D1401196CC5DDE4FB983A883C452D14096
:10EEE000CD0162E070E00F9434F2B0E2B093C6005E
:10EEF0008091C00086FFFCCF8091C0008064809329
:10EF0000C000EDE2E093C6008091C00086FFFCCF18
:10EF10008091C00080648093C000F0E2F093C6004E
:10EF20008091C00086FFFCCF8091C00080648093F8
:10EF3000C000CA5DDE4FE880F9800A811B81C6529D
:10EF4000D140BB27A12F902F8F2D0F940DF2CA5DBA
:10EF5000DE4F8881C652D1400F940DF2B0E2FB2EF5
:10EF6000F092C6008091C00086FFFCCF8091C00067
:10EF700080648093C0000DE30093C6008091C000C0
:10EF800086FFFCCF8091C00080648093C00010E2B7
:10EF90001093C6008091C00086FFFCCF8091C00016
:10EFA00080648093C0008BBEF3012791C65DDE4F65
:10EFB0002883CA52D140A22EBB24CC24DD2408943D
:10EFC000611C711C811C911C8BBEF3018791282E42
:10EFD0003324442455240894611C711C811C911C09
:10EFE0008BBEF3013791C55DDE4F3883CB52D140E4
:10EFF0000894611C711C811C911C8BBEF30147910C
:10F00000C45DDE4F4883CC52D140ADEFEA2EAFEF66
:10F01000FA2EAFEF0A2FAFEF1A2F6E0C7F1C801E57
:10F02000911E142D032DF22CEE24EA0CFB1C0C1D5A
:10F030001D1D0F940DF220E22093C6008091C000A8
:10F0400086FFFCCF8091C00080648093C000C65DC5
:10F05000DE4F8881CA52D1400F940DF230E23093D6
:10F06000C6008091C00086FFFCCF8091C000806404
:10F070008093C000C45DDE4F8881CC52D1400F9494
:10F080000DF240E24093C6008091C00086FFFCCFA5
:10F090008091C00080648093C000C55DDE4F888190
:10F0A000CB52D1400F940DF250E25093C6008091A4
:10F0B000C00086FFFCCF8091C00080648093C000B8
:10F0C0008FEFE8168FEFF80680E0080780E018075A
:10F0D00031F484E092EE60E00F94C2F1DFC0D80119
:10F0E000C7018070907CA070B0708050904CA040A0
:10F0F000B040D1F52FEF3FE340E050E0E222F322B1
:10F1000004231523CA5DDE4FA880B980CA80DB8046
:10F11000C652D140AE0CBF1CC01ED11EAA0CBB1CD7
:10F12000CC1CDD1C8EE092EE60E00F94C2F1BB2798
:10F13000A12F902F8F2D0F940DF28E2D0F940DF285
:10F1400030E23093C6008091C00086FFFCCF8091F2
:10F15000C00080648093C0004EE34093C60080915D
:10F16000C00086FFFCCF87C08EE09EEFA0E0B0E03D
:10F17000E822F9220A231B239CE0E91694E9F90608
:10F1800090E0090790E0190709F088C0C45DDE4FE0
:10F19000A881CC52D140EA2EFF2400E010E0102FCD
:10F1A0000F2DFE2CEE24C55DDE4FB881CB52D14031
:10F1B000EB0EF11C011D111DD601C501817090706F
:10F1C000A070B070DC0199278827E80EF91E0A1F8D
:10F1D0001B1F20EF30E040E050E0A222B322C42207
:10F1E000D52241E1AA0CBB1CCC1CDD1C4A95D1F7F1
:10F1F000EA0CFB1C0C1D1D1D81E090E0A0E0B0E0BE
:10F20000282239224A225B2235E1220C331C441C7D
:10F21000551C3A95D1F7E20CF31C041D151D57013E
:10F220006801AA0CBB1CCC1CDD1C85E192EE60E0E1
:10F230000F94C2F1C801AA27BB270F940DF2BB2778
:10F24000A12F902F8F2D0F940DF28E2D0F940DF274
:10F2500090E29093C6008091C00086FFFCCF809121
:10F26000C00080648093C000AEE3A093C60080918C
:10F27000C00086FFFCCF8091C00080648093C000F6
:10F28000C601AA27BB270F940DF2BB27AD2D9C2DDD
:10F290008B2D0F940DF28A2D0F940DF20F94DCF14B
:10F2A000CC5DDE4FE881F981C452D140F99709F471
:10F2B0004DCBF4E0EF2EF12C012D112D6E0C7F1CA7
:10F2C000801E911EF2CD83E093EE62E00F94F5F183
:10F2D0008AE192EE60E00F94C2F18091C00087FF56
:10F2E000FCCF1091C6001F751093C6008091C0001E
:10F2F00086FFFCCF8091C00080648093C0000F9493
:10F30000DCF1812F81548A3108F036C1163409F4BA
:10F3100095C0173490F4133409F44EC0143430F40B
:10F320001134F1F0123409F01DC130C0143409F465
:10F3300059C0153409F016C16BC01A3409F4C4C0A1
:10F340001B3438F4173409F48FC0183409F00AC19B
:10F35000A1C01B3409F4D2C01C3409F003C1E8C0B9
:10F360008FEF81B90DC082B1809582B980E090E0C5
:10F37000E0EDF7E03197F1F70196883C9105C1F790
:10F380008091C00087FFEFCF12B8EFC08FEF84B934
:10F390000DC085B1809585B980E090E0E0EDF7E0A3
:10F3A0003197F1F70196883C9105C1F78091C00033
:10F3B00087FFEFCF15B8D9C08FEF87B90DC088B1DF
:10F3C000809588B980E090E0E0EDF7E03197F1F7C3
:10F3D0000196883C9105C1F78091C00087FFEFCF6F
:10F3E00018B8C3C08FEF8AB90DC08BB180958BB9A7
:10F3F00080E090E0E0EDF7E03197F1F70196883C8E
:10F400009105C1F78091C00087FFEFCF1BB8ADC059
:10F410008FEF8DB90DC08EB180958EB980E090E0F0
:10F42000E0EDF7E03197F1F70196883C9105C1F7DF
:10F430008091C00087FFEFCF1EB897C08FEF80BBD1
:10F440000DC081B3809581BB80E090E0E0EDF7E0F6
:10F450003197F1F70196883C9105C1F78091C00082
:10F4600087FFEFCF11BA81C08FEF83BB0DC084B38C
:10F47000809584BB80E090E0E0EDF7E03197F1F714
:10F480000196883C9105C1F78091C00087FFEFCFBE
:10F4900014BA6BC08FEF809301010FC080910201FD
:10F4A00080958093020180E090E0E0EDF7E03197F5
:10F4B000F1F70196883C9105C1F78091C00087FF64
:10F4C000EDCF1092020151C08FEF809304010FC065
:10F4D0008091050180958093050180E090E0E0ED4A
:10F4E000F7E03197F1F70196883C9105C1F78091DB
:10F4F000C00087FFEDCF1092050137C08FEF8093DA
:10F5000007010FC08091080180958093080180E079
:10F5100090E0E0EDF7E03197F1F70196883C910536
:10F52000C1F78091C00087FFEDCF109208011DC088
:10F530008FEF80930A010FC080910B01809580931B
:10F540000B0180E090E0E0EDF7E03197F1F70196F4
:10F55000883C9105C1F78091C00087FFEDCF1092E4
:10F560000B0103C085E292EEEEC98091C00087FFD7
:10F57000FCCF8091C600EAC988E392EEE4C98CE131
:10F5800091EEE1C988249924933011F1943028F444
:10F59000913089F09230B8F408C0953061F195301F
:10F5A000F0F0963009F048C043C02B3109F042C951
:10F5B00091E06BE13FC96227C15DDE4F2883CF52E6
:10F5C000D14092E037C9B22FA0E0622793E032C960
:10F5D000822F90E0A82BB92B622794E02BC92E3004
:10F5E00009F039C3622795E0C05DDE4F19821882A9
:10F5F000C053D1401FC9E1E0F0E0EC0FFD1FC05D3A
:10F60000DE4F08811981C053D140E00FF11F2083E4
:10F610000F5F1F4FC05DDE4F19830883C053D14079
:10F6200062270A171B0709F005C9D80196E002C92D
:10F63000261709F010C303C0973009F0FBC87724E0
:10F640009981933109F412C19431C8F4963009F4C8
:10F65000D8C0973050F4923009F406C1933009F4C1
:10F660006DC0913009F059C253C0913109F477C08F
:10F67000923108F0BBC0903109F04FC2F5C098310B
:10F6800009F487C0993150F4953109F4EFC09531F0
:10F6900008F4C6C1963109F040C2C2C19A3109F4DA
:10F6A0006CC09A3108F491C09B3109F45BC09D3164
:10F6B00009F033C29D81903359F48F81882311F46E
:10F6C0009EE11CC0813011F091E018C098E916C08D
:10F6D000892F807591F0903539F4E0E0F0E089E011
:10F6E0008093570094910AC0983539F4E3E0F0E034
:10F6F00089E080935700949101C090E01A821B82A8
:10F700008D818C831D829E831F8227E030E009C299
:10F710001A8288E08B8381E48C8386E58D8382E581
:10F720008E8389E48F8383E5888780E589878FE5E9
:10F730008A8782E38B872BE030E0F3C18A818139AD
:10F7400041F0823941F0803911F48FE005C080E04A
:10F7500003C082E001C08AE01A828B8344C0772410
:10F76000739482C08D81882311F48EE12CC0813086
:10F7700011F081E028C088E926C01A82E1E0F0E0BB
:10F7800089E08093570084918B831C8224E030E0D1
:10F79000C8C18B81803589F48C81883039F4E2E0EE
:10F7A000F0E089E08093570084910DC0E0E0F0E044
:10F7B00089E080935700849106C0E3E0F0E089E09F
:10F7C0008093570084911A82DFCF8D81836C99E0FA
:10F7D000E1E0F0E0082E90935700E89507B600FCB2
:10F7E000FDCF1A821B8223E030E09BC180EC8A832C
:10F7F000CE5CDE4F188219821A821B82C253D1401E
:10F800008EC18A8190E0A0E0B0E0582F44273327D2
:10F8100022278B8190E0A0E0B0E0DC0199278827C7
:10F82000282B392B4A2B5B2B8D8190E0A0E0B0E098
:10F83000282B392B4A2B5B2B8C8190E0A0E0B0E089
:10F84000BA2FA92F982F8827282B392B4A2B5B2BCF
:10F85000220F331F441F551FC05EDE4F288339839C
:10F860004A835B83C052D1401A8259C13A81C95C34
:10F87000DE4F3883C753D140CA5CDE4F1882C6536F
:10F88000D1408B81C82EDD24CA5CDE4F488159816E
:10F89000C653D140C42AD52A933109F082C0CE5C28
:10F8A000DE4F88819981AA81BB81C253D1408050AB
:10F8B000904CA340B04030F583E0CE5CDE4FE88052
:10F8C000F9800A811B81C253D140F70100935B008C
:10F8D00080935700E89507B600FCFDCFCE5CDE4F65
:10F8E000088119812A813B81C253D14000501F4FAA
:10F8F0002F4F3F4FCE5CDE4F088319832A833B8313
:10F90000C253D140C05EDE4F488159816A817B81FC
:10F91000C052D140DE011B9631E08C9111962C91A2
:10F9200011971296C75CDE4F2883C953D140C85C3B
:10F93000DE4F1882C853D14090E0C85CDE4FE881AA
:10F94000F981C853D1408E2B9F2B0C01FA01609393
:10F950005B0030935700E89511244E5F5F4F6F4F67
:10F960007F4F0EEFE02E0FEFF02ECE0CDF1CC114F8
:10F97000D10499F685E0C05EDE4F088119812A81A5
:10F980003B81C052D140F80120935B008093570027
:10F99000E89507B600FCFDCF81E180935700E8951C
:10F9A00035C0C05EDE4F88819981AA81BB81C0527B
:10F9B000D140B695A795979587957C018601ABE0D8
:10F9C000AA2EB12CAC0EBD1E0BC0D5016D915D01F0
:10F9D000C7010F947FFE0894E11CF11C01501040F8
:10F9E0000115110591F7A60160E070E0440F551F65
:10F9F000661F771FC05EDE4FE880F9800A811B8199
:10FA0000C052D1404E0D5F1D601F711F1A82C05E33
:10FA1000DE4F488359836A837B83C052D1407FC0C5
:10FA2000FA80C55CDE4FF882CB53D140C65CDE4F16
:10FA30001882CA53D1408B81C82EDD24C65CDE4FAC
:10FA400008811981CA53D140C02AD12A1A828981DA
:10FA5000BE016D5F7F4F843121F59601C05EDE4FA0
:10FA6000E880F9800A811B81C052D1400BBFF701A9
:10FA700087919691DB018C9311969C936E5F7F4FDB
:10FA8000D801C7010296A11DB11DC05EDE4F88835B
:10FA90009983AA83BB83C052D14022503040F1F6F3
:10FAA00036C0C05EDE4F288139814A815B81C052F9
:10FAB000D1400894C108D108760100E010E0089414
:10FAC000C11CD11C0894E11CF11C011D111DE20E8A
:10FAD000F31E041F151F21BDBB27A52F942F832FB5
:10FAE00082BD2F5F3F4F4F4F5F4FF89A80B5DB01CC
:10FAF0008D93BD012E153F054007510761F7C05E8C
:10FB0000DE4F288339834A835B83C052D1409601FC
:10FB10002D5F3F4FFB01108204C080EC8A8322E0FE
:10FB200030E08BE18093C6008091C00086FFFCCF5F
:10FB30008091C00080648093C000C15DDE4FF88179
:10FB4000CF52D140F093C6008091C00086FFFCCF19
:10FB50008091C00080648093C000432F3093C60022
:10FB60008091C00086FFFCCF8091C00080648093AC
:10FB7000C000922F2093C6008091C00086FFFCCF6A
:10FB80008091C00080648093C0008EE08093C600A6
:10FB90008091C00086FFFCCF8091C000806480937C
:10FBA000C00065E1C15DDE4FE880CF52D1406E25D7
:10FBB00069276427FE01319610C090819093C6009A
:10FBC0008091C00086FFFCCF31968091C000806498
:10FBD0008093C0006927215030402115310569F715
:10FBE0006093C6008091C00086FFFCCF8091C0006A
:10FBF00080648093C00085B1805885B9772081F4F6
:10FC0000C15DDE4F0881CF52D1400F5FC15DDE4F35
:10FC10000883CF52D14090E0A0E0B0E00D941AF4F8
:10FC200027982F9880E090E020ED37E0F901319798
:10FC3000F1F7019684369105C9F700008091C00064
:10FC40008D7F8093C00081E180935700E895EE2777
:10FC5000FF270994FFCF90E00D941AF497FB092E2B
:10FC600007260AD077FD04D02ED006D000201AF443
:10FC7000709561957F4F0895F6F7909581959F4F08
:10FC80000895A1E21A2EAA1BBB1BFD010DC0AA1FDD
:10FC9000BB1FEE1FFF1FA217B307E407F50720F0F5
:10FCA000A21BB30BE40BF50B661F771F881F991F70
:10FCB0001A9469F760957095809590959B01AC01B9
:10FCC000BD01CF010895AA1BBB1B51E107C0AA1FAC
:10FCD000BB1FA617B70710F0A61BB70B881F991FED
:10FCE0005A95A9F780959095BC01CD010895F99991
:10FCF000FECF92BD81BDF89A992780B50895262F31
:10FD0000F999FECF1FBA92BD81BD20BD0FB6F89400
:0EFD1000FA9AF99A0FBE01960895F894FFCF63
:00000001FF
